{
  "contractName": "DataStore",
  "abi": [
    {
      "constant": true,
      "inputs": [
        {
          "name": "",
          "type": "uint256"
        }
      ],
      "name": "users",
      "outputs": [
        {
          "name": "",
          "type": "address"
        }
      ],
      "payable": false,
      "stateMutability": "view",
      "type": "function"
    },
    {
      "constant": true,
      "inputs": [
        {
          "name": "",
          "type": "address"
        },
        {
          "name": "",
          "type": "uint256"
        }
      ],
      "name": "userDocs",
      "outputs": [
        {
          "name": "hash",
          "type": "bytes"
        },
        {
          "name": "id",
          "type": "uint256"
        },
        {
          "name": "ownerIndex",
          "type": "uint256"
        }
      ],
      "payable": false,
      "stateMutability": "view",
      "type": "function"
    },
    {
      "anonymous": false,
      "inputs": [
        {
          "indexed": true,
          "name": "_from",
          "type": "address"
        },
        {
          "indexed": true,
          "name": "_to",
          "type": "address"
        },
        {
          "indexed": false,
          "name": "_value",
          "type": "uint256"
        }
      ],
      "name": "Transfer",
      "type": "event"
    },
    {
      "constant": false,
      "inputs": [
        {
          "name": "data",
          "type": "bytes"
        }
      ],
      "name": "addDocForUser",
      "outputs": [
        {
          "name": "success",
          "type": "bool"
        }
      ],
      "payable": false,
      "stateMutability": "nonpayable",
      "type": "function"
    },
    {
      "constant": true,
      "inputs": [
        {
          "name": "docId",
          "type": "uint256"
        }
      ],
      "name": "getDocForUser",
      "outputs": [
        {
          "name": "",
          "type": "bytes"
        }
      ],
      "payable": false,
      "stateMutability": "view",
      "type": "function"
    },
    {
      "constant": true,
      "inputs": [
        {
          "name": "ownerid",
          "type": "uint256"
        },
        {
          "name": "docId",
          "type": "uint256"
        }
      ],
      "name": "getDocByUserIndex",
      "outputs": [
        {
          "name": "",
          "type": "bytes"
        }
      ],
      "payable": false,
      "stateMutability": "view",
      "type": "function"
    },
    {
      "constant": true,
      "inputs": [],
      "name": "getNumUsers",
      "outputs": [
        {
          "name": "",
          "type": "uint256"
        }
      ],
      "payable": false,
      "stateMutability": "view",
      "type": "function"
    },
    {
      "constant": true,
      "inputs": [
        {
          "name": "ownerid",
          "type": "uint256"
        }
      ],
      "name": "getNumDocsForUser",
      "outputs": [
        {
          "name": "",
          "type": "uint256"
        }
      ],
      "payable": false,
      "stateMutability": "view",
      "type": "function"
    },
    {
      "constant": false,
      "inputs": [],
      "name": "transferToContract",
      "outputs": [
        {
          "name": "",
          "type": "bool"
        }
      ],
      "payable": true,
      "stateMutability": "payable",
      "type": "function"
    },
    {
      "constant": false,
      "inputs": [
        {
          "name": "amount",
          "type": "uint256"
        }
      ],
      "name": "transferToUser",
      "outputs": [
        {
          "name": "",
          "type": "bool"
        }
      ],
      "payable": false,
      "stateMutability": "nonpayable",
      "type": "function"
    },
    {
      "constant": true,
      "inputs": [
        {
          "name": "hash",
          "type": "bytes"
        }
      ],
      "name": "getAddressFromDoc",
      "outputs": [
        {
          "name": "",
          "type": "address"
        }
      ],
      "payable": false,
      "stateMutability": "view",
      "type": "function"
    }
  ],
  "bytecode": "0x608060405234801561001057600080fd5b50610f2f806100206000396000f3006080604052600436106100a4576000357c0100000000000000000000000000000000000000000000000000000000900463ffffffff16806312cccb34146100a9578063365b98b2146100cb5780633b8284b0146101385780635038587f146101e857806365f88c0d1461028e5780636c53192f146102b95780636fb525ef1461038d578063b1da562814610436578063dbc17c8f146104b7578063e1a9d894146104f8575b600080fd5b6100b161053d565b604051808215151515815260200191505060405180910390f35b3480156100d757600080fd5b506100f660048036038101908080359060200190929190505050610542565b604051808273ffffffffffffffffffffffffffffffffffffffff1673ffffffffffffffffffffffffffffffffffffffff16815260200191505060405180910390f35b34801561014457600080fd5b5061016d6004803603810190808035906020019092919080359060200190929190505050610580565b6040518080602001828103825283818151815260200191508051906020019080838360005b838110156101ad578082015181840152602081019050610192565b50505050905090810190601f1680156101da5780820380516001836020036101000a031916815260200191505b509250505060405180910390f35b3480156101f457600080fd5b50610213600480360381019080803590602001909291905050506106bf565b6040518080602001828103825283818151815260200191508051906020019080838360005b83811015610253578082015181840152602081019050610238565b50505050905090810190601f1680156102805780820380516001836020036101000a031916815260200191505b509250505060405180910390f35b34801561029a57600080fd5b506102a36107be565b6040518082815260200191505060405180910390f35b3480156102c557600080fd5b50610304600480360381019080803573ffffffffffffffffffffffffffffffffffffffff169060200190929190803590602001909291905050506107cb565b6040518080602001848152602001838152602001828103825285818151815260200191508051906020019080838360005b83811015610350578082015181840152602081019050610335565b50505050905090810190601f16801561037d5780820380516001836020036101000a031916815260200191505b5094505050505060405180910390f35b34801561039957600080fd5b506103f4600480360381019080803590602001908201803590602001908080601f01602080910402602001604051908101604052809392919081815260200183838082843782019150505050505091929192905050506108a9565b604051808273ffffffffffffffffffffffffffffffffffffffff1673ffffffffffffffffffffffffffffffffffffffff16815260200191505060405180910390f35b34801561044257600080fd5b5061049d600480360381019080803590602001908201803590602001908080601f016020809104026020016040519081016040528093929190818152602001838380828437820191505050505050919291929050505061093e565b604051808215151515815260200191505060405180910390f35b3480156104c357600080fd5b506104e260048036038101908080359060200190929190505050610d82565b6040518082815260200191505060405180910390f35b34801561050457600080fd5b5061052360048036038101908080359060200190929190505050610e0c565b604051808215151515815260200191505060405180910390f35b600090565b60018181548110151561055157fe5b906000526020600020016000915054906101000a900473ffffffffffffffffffffffffffffffffffffffff1681565b6060600060018481548110151561059357fe5b9060005260206000200160009054906101000a900473ffffffffffffffffffffffffffffffffffffffff169050600360008273ffffffffffffffffffffffffffffffffffffffff1673ffffffffffffffffffffffffffffffffffffffff1681526020019081526020016000208381548110151561060c57fe5b90600052602060002090600302016000018054600181600116156101000203166002900480601f0160208091040260200160405190810160405280929190818152602001828054600181600116156101000203166002900480156106b15780601f10610686576101008083540402835291602001916106b1565b820191906000526020600020905b81548152906001019060200180831161069457829003601f168201915b505050505091505092915050565b6060600360003373ffffffffffffffffffffffffffffffffffffffff1673ffffffffffffffffffffffffffffffffffffffff1681526020019081526020016000208281548110151561070d57fe5b90600052602060002090600302016000018054600181600116156101000203166002900480601f0160208091040260200160405190810160405280929190818152602001828054600181600116156101000203166002900480156107b25780601f10610787576101008083540402835291602001916107b2565b820191906000526020600020905b81548152906001019060200180831161079557829003601f168201915b50505050509050919050565b6000600180549050905090565b6003602052816000526040600020818154811015156107e657fe5b906000526020600020906003020160009150915050806000018054600181600116156101000203166002900480601f0160208091040260200160405190810160405280929190818152602001828054600181600116156101000203166002900480156108935780601f1061086857610100808354040283529160200191610893565b820191906000526020600020905b81548152906001019060200180831161087657829003601f168201915b5050505050908060010154908060020154905083565b60006002826040518082805190602001908083835b6020831015156108e357805182526020820191506020810190506020830392506108be565b6001836020036101000a038019825116818451168082178552505050505050905001915050908152602001604051809103902060009054906101000a900473ffffffffffffffffffffffffffffffffffffffff169050919050565b600080600080600360003373ffffffffffffffffffffffffffffffffffffffff1673ffffffffffffffffffffffffffffffffffffffff168152602001908152602001600020805490501415610b6c57600091506001805490509050600360003373ffffffffffffffffffffffffffffffffffffffff1673ffffffffffffffffffffffffffffffffffffffff16815260200190815260200160002060606040519081016040528086815260200184815260200183815250908060018154018082558091505090600182039060005260206000209060030201600090919290919091506000820151816000019080519060200190610a3b929190610e5e565b506020820151816001015560408201518160020155505050336002856040518082805190602001908083835b602083101515610a8c5780518252602082019150602081019050602083039250610a67565b6001836020036101000a038019825116818451168082178552505050505050905001915050908152602001604051809103902060006101000a81548173ffffffffffffffffffffffffffffffffffffffff021916908373ffffffffffffffffffffffffffffffffffffffff16021790555060013390806001815401808255809150509060018203906000526020600020016000909192909190916101000a81548173ffffffffffffffffffffffffffffffffffffffff021916908373ffffffffffffffffffffffffffffffffffffffff1602179055505060019250610d7b565b600360003373ffffffffffffffffffffffffffffffffffffffff1673ffffffffffffffffffffffffffffffffffffffff168152602001908152602001600020805490509150600360003373ffffffffffffffffffffffffffffffffffffffff1673ffffffffffffffffffffffffffffffffffffffff1681526020019081526020016000206000815481101515610bfe57fe5b9060005260206000209060030201600201549050600360003373ffffffffffffffffffffffffffffffffffffffff1673ffffffffffffffffffffffffffffffffffffffff16815260200190815260200160002060606040519081016040528086815260200184815260200183815250908060018154018082558091505090600182039060005260206000209060030201600090919290919091506000820151816000019080519060200190610cb4929190610e5e565b506020820151816001015560408201518160020155505050336002856040518082805190602001908083835b602083101515610d055780518252602082019150602081019050602083039250610ce0565b6001836020036101000a038019825116818451168082178552505050505050905001915050908152602001604051809103902060006101000a81548173ffffffffffffffffffffffffffffffffffffffff021916908373ffffffffffffffffffffffffffffffffffffffff160217905550600192505b5050919050565b600080600183815481101515610d9457fe5b9060005260206000200160009054906101000a900473ffffffffffffffffffffffffffffffffffffffff169050600360008273ffffffffffffffffffffffffffffffffffffffff1673ffffffffffffffffffffffffffffffffffffffff16815260200190815260200160002080549050915050919050565b60003373ffffffffffffffffffffffffffffffffffffffff166108fc839081150290604051600060405180830381858888f19350505050158015610e54573d6000803e3d6000fd5b5060019050919050565b828054600181600116156101000203166002900490600052602060002090601f016020900481019282601f10610e9f57805160ff1916838001178555610ecd565b82800160010185558215610ecd579182015b82811115610ecc578251825591602001919060010190610eb1565b5b509050610eda9190610ede565b5090565b610f0091905b80821115610efc576000816000905550600101610ee4565b5090565b905600a165627a7a72305820e481c1ef5ed9f486bc3e99e33929ae5fca70c595ac7feb3541afd66ba4f819960029",
  "source": "pragma solidity ^0.4.0;\r\n//pragma experimental ABIEncoderV2;\r\n\r\ncontract DataStore {\r\n\r\n    event Transfer(address indexed _from, address indexed _to, uint256 _value);\r\n    mapping (address => uint) balances;\r\n\r\n    struct Document {\r\n        bytes hash;\r\n        uint id;\r\n        uint ownerIndex;\r\n       // string date;\r\n       // string name;\r\n    }\r\n\r\n    address[] public users;\r\n    mapping(bytes => address) allDocs;\r\n    mapping(address => Document[]) public userDocs;\r\n\r\n    //save the IPFS hash into a Document struct\r\n    //each user can possess multiple documents\r\n    function addDocForUser(bytes data) public returns (bool success) {\r\n        uint docId;\r\n        uint owner;\r\n        if(userDocs[msg.sender].length == 0) {\r\n            docId = 0;\r\n            owner = users.length;\r\n            userDocs[msg.sender].push(Document(data, docId, owner));\r\n            allDocs[data] = msg.sender;\r\n            users.push(msg.sender);\r\n            return true;\r\n        } else {\r\n            docId = userDocs[msg.sender].length;\r\n            owner = userDocs[msg.sender][0].ownerIndex;\r\n\r\n            userDocs[msg.sender].push(Document(data, docId, owner));\r\n            allDocs[data] = msg.sender;\r\n            return true;\r\n        }\r\n        return false;\r\n    }\r\n\r\n    //retrieve doc for current user\r\n    function getDocForUser(uint docId) public view returns (bytes) {\r\n        return userDocs[msg.sender][docId].hash;\r\n    }\r\n\r\n    //to be used in nested for loop to retrieve all docs\r\n    function getDocByUserIndex(uint ownerid, uint docId) public view returns (bytes) {\r\n        address addr = users[ownerid];\r\n        return userDocs[addr][docId].hash;\r\n    }\r\n\r\n    function getNumUsers() public view returns (uint) {\r\n        return users.length;\r\n    }\r\n\r\n    function getNumDocsForUser(uint ownerid) public view returns (uint) {\r\n        address addr = users[ownerid];\r\n        return userDocs[addr].length;\r\n    }\r\n\r\n    function transferToContract() public payable returns (bool) {\r\n\t}\r\n\r\n    function transferToUser(uint amount) public returns (bool) {\r\n        msg.sender.transfer(amount);\r\n        return true;\r\n    }\r\n\r\n    function getAddressFromDoc(bytes hash) public view returns (address) {\r\n        return allDocs[hash];\r\n    }\r\n\r\n}",
  "sourcePath": "C:\\Users\\Eli\\documents\\truffle\\contracts\\DataStore.sol",
  "compiler": {
    "name": "solc",
    "version": "0.4.24+commit.e67f0147.Emscripten.clang"
  },
  "schemaVersion": "2.0.0",
  "updatedAt": "2018-06-12T06:32:38.732Z"
}