{
  "contractName": "DataStore",
  "abi": [
    {
      "constant": true,
      "inputs": [
        {
          "name": "",
          "type": "uint256"
        }
      ],
      "name": "users",
      "outputs": [
        {
          "name": "",
          "type": "address"
        }
      ],
      "payable": false,
      "stateMutability": "view",
      "type": "function"
    },
    {
      "constant": true,
      "inputs": [
        {
          "name": "",
          "type": "address"
        },
        {
          "name": "",
          "type": "uint256"
        }
      ],
      "name": "userDocs",
      "outputs": [
        {
          "name": "hash",
          "type": "bytes"
        },
        {
          "name": "id",
          "type": "uint256"
        },
        {
          "name": "ownerIndex",
          "type": "uint256"
        },
        {
          "name": "dateAdded",
          "type": "string"
        },
        {
          "name": "title",
          "type": "string"
        }
      ],
      "payable": false,
      "stateMutability": "view",
      "type": "function"
    },
    {
      "anonymous": false,
      "inputs": [
        {
          "indexed": true,
          "name": "_from",
          "type": "address"
        },
        {
          "indexed": true,
          "name": "_to",
          "type": "address"
        },
        {
          "indexed": false,
          "name": "_value",
          "type": "uint256"
        }
      ],
      "name": "Transfer",
      "type": "event"
    },
    {
      "constant": false,
      "inputs": [
        {
          "name": "data",
          "type": "bytes"
        },
        {
          "name": "title",
          "type": "string"
        },
        {
          "name": "date",
          "type": "string"
        }
      ],
      "name": "addDocForUser",
      "outputs": [
        {
          "name": "success",
          "type": "bool"
        }
      ],
      "payable": false,
      "stateMutability": "nonpayable",
      "type": "function"
    },
    {
      "constant": true,
      "inputs": [
        {
          "name": "docId",
          "type": "uint256"
        }
      ],
      "name": "getDocForUser",
      "outputs": [
        {
          "name": "",
          "type": "bytes"
        }
      ],
      "payable": false,
      "stateMutability": "view",
      "type": "function"
    },
    {
      "constant": true,
      "inputs": [
        {
          "name": "docId",
          "type": "uint256"
        }
      ],
      "name": "getDocTitleForUser",
      "outputs": [
        {
          "name": "",
          "type": "string"
        }
      ],
      "payable": false,
      "stateMutability": "view",
      "type": "function"
    },
    {
      "constant": true,
      "inputs": [
        {
          "name": "ownerid",
          "type": "uint256"
        },
        {
          "name": "docId",
          "type": "uint256"
        }
      ],
      "name": "getDocByUserIndex",
      "outputs": [
        {
          "name": "",
          "type": "bytes"
        }
      ],
      "payable": false,
      "stateMutability": "view",
      "type": "function"
    },
    {
      "constant": true,
      "inputs": [
        {
          "name": "ownerid",
          "type": "uint256"
        },
        {
          "name": "docId",
          "type": "uint256"
        }
      ],
      "name": "getDocTitleByUserIndex",
      "outputs": [
        {
          "name": "",
          "type": "string"
        }
      ],
      "payable": false,
      "stateMutability": "view",
      "type": "function"
    },
    {
      "constant": true,
      "inputs": [],
      "name": "getNumUsers",
      "outputs": [
        {
          "name": "",
          "type": "uint256"
        }
      ],
      "payable": false,
      "stateMutability": "view",
      "type": "function"
    },
    {
      "constant": true,
      "inputs": [
        {
          "name": "ownerid",
          "type": "uint256"
        }
      ],
      "name": "getNumDocsForUserById",
      "outputs": [
        {
          "name": "",
          "type": "uint256"
        }
      ],
      "payable": false,
      "stateMutability": "view",
      "type": "function"
    },
    {
      "constant": true,
      "inputs": [],
      "name": "getNumDocsForUserByAddr",
      "outputs": [
        {
          "name": "",
          "type": "uint256"
        }
      ],
      "payable": false,
      "stateMutability": "view",
      "type": "function"
    },
    {
      "constant": false,
      "inputs": [],
      "name": "transferToContract",
      "outputs": [
        {
          "name": "",
          "type": "bool"
        }
      ],
      "payable": true,
      "stateMutability": "payable",
      "type": "function"
    },
    {
      "constant": false,
      "inputs": [
        {
          "name": "amount",
          "type": "uint256"
        }
      ],
      "name": "transferToUser",
      "outputs": [
        {
          "name": "",
          "type": "bool"
        }
      ],
      "payable": false,
      "stateMutability": "nonpayable",
      "type": "function"
    },
    {
      "constant": true,
      "inputs": [
        {
          "name": "hash",
          "type": "bytes"
        }
      ],
      "name": "getAddressFromDoc",
      "outputs": [
        {
          "name": "",
          "type": "address"
        }
      ],
      "payable": false,
      "stateMutability": "view",
      "type": "function"
    },
    {
      "constant": true,
      "inputs": [
        {
          "name": "index",
          "type": "uint256"
        }
      ],
      "name": "getUserByIndex",
      "outputs": [
        {
          "name": "",
          "type": "address"
        }
      ],
      "payable": false,
      "stateMutability": "view",
      "type": "function"
    }
  ],
  "bytecode": "0x608060405234801561001057600080fd5b506117c2806100206000396000f3006080604052600436106100d0576000357c0100000000000000000000000000000000000000000000000000000000900463ffffffff1680630aa61591146100d557806312cccb34146101e25780632b19201714610204578063365b98b2146102455780633b8284b0146102b25780635038587f1461036257806365f88c0d146104085780636c53192f146104335780636fb525ef146105df57806379380e8b14610688578063c56ba3b5146106b3578063c95f2a5f14610759578063e1a9d89414610809578063ff5d32fe1461084e575b600080fd5b3480156100e157600080fd5b506101c8600480360381019080803590602001908201803590602001908080601f0160208091040260200160405190810160405280939291908181526020018383808284378201915050505050509192919290803590602001908201803590602001908080601f0160208091040260200160405190810160405280939291908181526020018383808284378201915050505050509192919290803590602001908201803590602001908080601f01602080910402602001604051908101604052809392919081815260200183838082843782019150505050505091929192905050506108bb565b604051808215151515815260200191505060405180910390f35b6101ea610d8d565b604051808215151515815260200191505060405180910390f35b34801561021057600080fd5b5061022f60048036038101908080359060200190929190505050610d92565b6040518082815260200191505060405180910390f35b34801561025157600080fd5b5061027060048036038101908080359060200190929190505050610e1c565b604051808273ffffffffffffffffffffffffffffffffffffffff1673ffffffffffffffffffffffffffffffffffffffff16815260200191505060405180910390f35b3480156102be57600080fd5b506102e76004803603810190808035906020019092919080359060200190929190505050610e5a565b6040518080602001828103825283818151815260200191508051906020019080838360005b8381101561032757808201518184015260208101905061030c565b50505050905090810190601f1680156103545780820380516001836020036101000a031916815260200191505b509250505060405180910390f35b34801561036e57600080fd5b5061038d60048036038101908080359060200190929190505050610f99565b6040518080602001828103825283818151815260200191508051906020019080838360005b838110156103cd5780820151818401526020810190506103b2565b50505050905090810190601f1680156103fa5780820380516001836020036101000a031916815260200191505b509250505060405180910390f35b34801561041457600080fd5b5061041d611098565b6040518082815260200191505060405180910390f35b34801561043f57600080fd5b5061047e600480360381019080803573ffffffffffffffffffffffffffffffffffffffff169060200190929190803590602001909291905050506110a5565b60405180806020018681526020018581526020018060200180602001848103845289818151815260200191508051906020019080838360005b838110156104d25780820151818401526020810190506104b7565b50505050905090810190601f1680156104ff5780820380516001836020036101000a031916815260200191505b50848103835286818151815260200191508051906020019080838360005b8381101561053857808201518184015260208101905061051d565b50505050905090810190601f1680156105655780820380516001836020036101000a031916815260200191505b50848103825285818151815260200191508051906020019080838360005b8381101561059e578082015181840152602081019050610583565b50505050905090810190601f1680156105cb5780820380516001836020036101000a031916815260200191505b509850505050505050505060405180910390f35b3480156105eb57600080fd5b50610646600480360381019080803590602001908201803590602001908080601f01602080910402602001604051908101604052809392919081815260200183838082843782019150505050505091929192905050506112bf565b604051808273ffffffffffffffffffffffffffffffffffffffff1673ffffffffffffffffffffffffffffffffffffffff16815260200191505060405180910390f35b34801561069457600080fd5b5061069d611354565b6040518082815260200191505060405180910390f35b3480156106bf57600080fd5b506106de6004803603810190808035906020019092919050505061139e565b6040518080602001828103825283818151815260200191508051906020019080838360005b8381101561071e578082015181840152602081019050610703565b50505050905090810190601f16801561074b5780820380516001836020036101000a031916815260200191505b509250505060405180910390f35b34801561076557600080fd5b5061078e600480360381019080803590602001909291908035906020019092919050505061149d565b6040518080602001828103825283818151815260200191508051906020019080838360005b838110156107ce5780820151818401526020810190506107b3565b50505050905090810190601f1680156107fb5780820380516001836020036101000a031916815260200191505b509250505060405180910390f35b34801561081557600080fd5b50610834600480360381019080803590602001909291905050506115dc565b604051808215151515815260200191505060405180910390f35b34801561085a57600080fd5b506108796004803603810190808035906020019092919050505061162e565b604051808273ffffffffffffffffffffffffffffffffffffffff1673ffffffffffffffffffffffffffffffffffffffff16815260200191505060405180910390f35b600080600080600360003373ffffffffffffffffffffffffffffffffffffffff1673ffffffffffffffffffffffffffffffffffffffff168152602001908152602001600020805490501415610b2f57600091506001805490509050600360003373ffffffffffffffffffffffffffffffffffffffff1673ffffffffffffffffffffffffffffffffffffffff16815260200190815260200160002060a060405190810160405280888152602001848152602001838152602001868152602001878152509080600181540180825580915050906001820390600052602060002090600502016000909192909190915060008201518160000190805190602001906109c4929190611671565b50602082015181600101556040820151816002015560608201518160030190805190602001906109f59291906116f1565b506080820151816004019080519060200190610a129291906116f1565b50505050336002876040518082805190602001908083835b602083101515610a4f5780518252602082019150602081019050602083039250610a2a565b6001836020036101000a038019825116818451168082178552505050505050905001915050908152602001604051809103902060006101000a81548173ffffffffffffffffffffffffffffffffffffffff021916908373ffffffffffffffffffffffffffffffffffffffff16021790555060013390806001815401808255809150509060018203906000526020600020016000909192909190916101000a81548173ffffffffffffffffffffffffffffffffffffffff021916908373ffffffffffffffffffffffffffffffffffffffff1602179055505060019250610d84565b600360003373ffffffffffffffffffffffffffffffffffffffff1673ffffffffffffffffffffffffffffffffffffffff168152602001908152602001600020805490509150600360003373ffffffffffffffffffffffffffffffffffffffff1673ffffffffffffffffffffffffffffffffffffffff1681526020019081526020016000206000815481101515610bc157fe5b9060005260206000209060050201600201549050600360003373ffffffffffffffffffffffffffffffffffffffff1673ffffffffffffffffffffffffffffffffffffffff16815260200190815260200160002060a06040519081016040528088815260200184815260200183815260200186815260200187815250908060018154018082558091505090600182039060005260206000209060050201600090919290919091506000820151816000019080519060200190610c83929190611671565b5060208201518160010155604082015181600201556060820151816003019080519060200190610cb49291906116f1565b506080820151816004019080519060200190610cd19291906116f1565b50505050336002876040518082805190602001908083835b602083101515610d0e5780518252602082019150602081019050602083039250610ce9565b6001836020036101000a038019825116818451168082178552505050505050905001915050908152602001604051809103902060006101000a81548173ffffffffffffffffffffffffffffffffffffffff021916908373ffffffffffffffffffffffffffffffffffffffff160217905550600192505b50509392505050565b600090565b600080600183815481101515610da457fe5b9060005260206000200160009054906101000a900473ffffffffffffffffffffffffffffffffffffffff169050600360008273ffffffffffffffffffffffffffffffffffffffff1673ffffffffffffffffffffffffffffffffffffffff16815260200190815260200160002080549050915050919050565b600181815481101515610e2b57fe5b906000526020600020016000915054906101000a900473ffffffffffffffffffffffffffffffffffffffff1681565b60606000600184815481101515610e6d57fe5b9060005260206000200160009054906101000a900473ffffffffffffffffffffffffffffffffffffffff169050600360008273ffffffffffffffffffffffffffffffffffffffff1673ffffffffffffffffffffffffffffffffffffffff16815260200190815260200160002083815481101515610ee657fe5b90600052602060002090600502016000018054600181600116156101000203166002900480601f016020809104026020016040519081016040528092919081815260200182805460018160011615610100020316600290048015610f8b5780601f10610f6057610100808354040283529160200191610f8b565b820191906000526020600020905b815481529060010190602001808311610f6e57829003601f168201915b505050505091505092915050565b6060600360003373ffffffffffffffffffffffffffffffffffffffff1673ffffffffffffffffffffffffffffffffffffffff16815260200190815260200160002082815481101515610fe757fe5b90600052602060002090600502016000018054600181600116156101000203166002900480601f01602080910402602001604051908101604052809291908181526020018280546001816001161561010002031660029004801561108c5780601f106110615761010080835404028352916020019161108c565b820191906000526020600020905b81548152906001019060200180831161106f57829003601f168201915b50505050509050919050565b6000600180549050905090565b6003602052816000526040600020818154811015156110c057fe5b906000526020600020906005020160009150915050806000018054600181600116156101000203166002900480601f01602080910402602001604051908101604052809291908181526020018280546001816001161561010002031660029004801561116d5780601f106111425761010080835404028352916020019161116d565b820191906000526020600020905b81548152906001019060200180831161115057829003601f168201915b505050505090806001015490806002015490806003018054600181600116156101000203166002900480601f0160208091040260200160405190810160405280929190818152602001828054600181600116156101000203166002900480156112175780601f106111ec57610100808354040283529160200191611217565b820191906000526020600020905b8154815290600101906020018083116111fa57829003601f168201915b505050505090806004018054600181600116156101000203166002900480601f0160208091040260200160405190810160405280929190818152602001828054600181600116156101000203166002900480156112b55780601f1061128a576101008083540402835291602001916112b5565b820191906000526020600020905b81548152906001019060200180831161129857829003601f168201915b5050505050905085565b60006002826040518082805190602001908083835b6020831015156112f957805182526020820191506020810190506020830392506112d4565b6001836020036101000a038019825116818451168082178552505050505050905001915050908152602001604051809103902060009054906101000a900473ffffffffffffffffffffffffffffffffffffffff169050919050565b6000600360003373ffffffffffffffffffffffffffffffffffffffff1673ffffffffffffffffffffffffffffffffffffffff16815260200190815260200160002080549050905090565b6060600360003373ffffffffffffffffffffffffffffffffffffffff1673ffffffffffffffffffffffffffffffffffffffff168152602001908152602001600020828154811015156113ec57fe5b90600052602060002090600502016004018054600181600116156101000203166002900480601f0160208091040260200160405190810160405280929190818152602001828054600181600116156101000203166002900480156114915780601f1061146657610100808354040283529160200191611491565b820191906000526020600020905b81548152906001019060200180831161147457829003601f168201915b50505050509050919050565b606060006001848154811015156114b057fe5b9060005260206000200160009054906101000a900473ffffffffffffffffffffffffffffffffffffffff169050600360008273ffffffffffffffffffffffffffffffffffffffff1673ffffffffffffffffffffffffffffffffffffffff1681526020019081526020016000208381548110151561152957fe5b90600052602060002090600502016004018054600181600116156101000203166002900480601f0160208091040260200160405190810160405280929190818152602001828054600181600116156101000203166002900480156115ce5780601f106115a3576101008083540402835291602001916115ce565b820191906000526020600020905b8154815290600101906020018083116115b157829003601f168201915b505050505091505092915050565b60003373ffffffffffffffffffffffffffffffffffffffff166108fc839081150290604051600060405180830381858888f19350505050158015611624573d6000803e3d6000fd5b5060019050919050565b600060018281548110151561163f57fe5b9060005260206000200160009054906101000a900473ffffffffffffffffffffffffffffffffffffffff169050919050565b828054600181600116156101000203166002900490600052602060002090601f016020900481019282601f106116b257805160ff19168380011785556116e0565b828001600101855582156116e0579182015b828111156116df5782518255916020019190600101906116c4565b5b5090506116ed9190611771565b5090565b828054600181600116156101000203166002900490600052602060002090601f016020900481019282601f1061173257805160ff1916838001178555611760565b82800160010185558215611760579182015b8281111561175f578251825591602001919060010190611744565b5b50905061176d9190611771565b5090565b61179391905b8082111561178f576000816000905550600101611777565b5090565b905600a165627a7a723058200aec359ca7828ffd21984652e76d7d744ea4fd02be22b52a0647595a7f503d660029",
  "source": "pragma solidity ^0.4.24;\r\n\r\ncontract DataStore {\r\n\r\n    event Transfer(address indexed _from, address indexed _to, uint256 _value);\r\n    mapping (address => uint) balances;\r\n\r\n    struct Document {\r\n        bytes hash;\r\n        uint id;\r\n        uint ownerIndex;\r\n        string dateAdded;\r\n        string title;\r\n    }\r\n\r\n    address[] public users;\r\n    mapping(bytes => address) allDocs;\r\n    mapping(address => Document[]) public userDocs;\r\n\r\n    //save the IPFS hash into a Document struct\r\n    //each user can possess multiple documents\r\n    function addDocForUser(bytes data, string title, string date) public returns (bool success) {\r\n        uint docId;\r\n        uint owner;\r\n        if(userDocs[msg.sender].length == 0) {\r\n            docId = 0;\r\n            owner = users.length;\r\n            userDocs[msg.sender].push(Document(data, docId, owner, date, title));\r\n            allDocs[data] = msg.sender;\r\n            users.push(msg.sender);\r\n            return true;\r\n        } else {\r\n            docId = userDocs[msg.sender].length;\r\n            owner = userDocs[msg.sender][0].ownerIndex;\r\n\r\n            userDocs[msg.sender].push(Document(data, docId, owner, date, title));\r\n            allDocs[data] = msg.sender;\r\n            return true;\r\n        }\r\n        return false;\r\n    }\r\n\r\n    //retrieve doc for current user\r\n    function getDocForUser(uint docId) public view returns (bytes) {\r\n        return userDocs[msg.sender][docId].hash;\r\n    }\r\n    \r\n    function getDocTitleForUser(uint docId) public view returns (string) {\r\n        return userDocs[msg.sender][docId].title;\r\n    }\r\n\r\n    //to be used in nested for loop to retrieve all docs\r\n    function getDocByUserIndex(uint ownerid, uint docId) public view returns (bytes) {\r\n        address addr = users[ownerid];\r\n        return userDocs[addr][docId].hash;\r\n    }\r\n\r\n    function getDocTitleByUserIndex(uint ownerid, uint docId) public view returns (string) {\r\n        address addr = users[ownerid];\r\n        return userDocs[addr][docId].title;\r\n    }\r\n\r\n    function getNumUsers() public view returns (uint) {\r\n        return users.length;\r\n    }\r\n\r\n    function getNumDocsForUserById(uint ownerid) public view returns (uint) {\r\n        address addr = users[ownerid];\r\n        return userDocs[addr].length;\r\n    }\r\n\r\n    function getNumDocsForUserByAddr() public view returns (uint) {\r\n        return userDocs[msg.sender].length;\r\n    }\r\n\r\n    function transferToContract() public payable returns (bool) {\r\n\t}\r\n\r\n    function transferToUser(uint amount) public returns (bool) {\r\n        msg.sender.transfer(amount);\r\n        return true;\r\n    }\r\n\r\n    function getAddressFromDoc(bytes hash) public view returns (address) {\r\n        return allDocs[hash];\r\n    }\r\n\r\n    function getUserByIndex(uint index) public view returns (address) {\r\n        return users[index];\r\n    }\r\n\r\n}",
  "sourcePath": "C:\\Users\\Eli\\documents\\fiload\\contracts\\DataStore.sol",
  "compiler": {
    "name": "solc",
    "version": "0.4.24+commit.e67f0147.Emscripten.clang"
  },
  "schemaVersion": "2.0.0",
  "updatedAt": "2018-07-19T03:26:25.560Z"
}